:100000000C9462000C948A000C948A000C948A0070
:100010000C948A000C948A000C948A000C948A0038
:100020000C948A000C948A000C948A000C948A0028
:100030000C948A000C948A000C948A000C948A0018
:100040000C9439020C948A000C94BF030C940204A3
:100050000C948A000C948A000C948A000C948A00F8
:100060000C948A000C948A00000000070002010032
:100070000003040600000000000000000102040864
:100080001020408001020408102001020408102002
:10009000040404040404040402020202020203032E
:1000A00003030303000000002300260029000000D2
:1000B0000000250028002B0000000000240027007D
:1000C0002A00C20411241FBECFEFD8E0DEBFCDBF8F
:1000D00011E0A0E0B1E0EAE3F4E102C005900D9286
:1000E000AE33B107D9F711E0AEE3B1E001C01D9224
:1000F000A23FB107E1F710E0C4ECD0E004C02297C2
:10010000FE010E94170AC23CD107C9F70E941103E1
:100110000C941B0A0C940000CF93DF93C8E4D1E049
:10012000CE0140E855E260E070E00E943D04CE015F
:1001300060E071E00E94610580912B0161E00E9406
:10014000CE010E94520780E388B9DF91CF910895D4
:10015000CF92DF92EF92FF920F931F93CF93DF9393
:100160008C016A017B01C8E4D1E0CE0169E071E055
:100170000E944205CE01B8014AE050E00E941D06EF
:10018000CE016EE071E00E944205CE01B701A601EA
:1001900022E030E00E944007DF91CF911F910F9144
:1001A000FF90EF90DF90CF900895CF93DF93C82F0B
:1001B0000E947D0787E00E94AF078C2F8F5F0E940F
:1001C000A4070E94C007C82F0E94C007D82F0E9412
:1001D000CA070E94A7076D2F70E06F777070762FA7
:1001E00066276C0F711D882777FD8095982F0E94D8
:1001F000D8082AE037ED43EA5CE30E948C09462FD9
:10020000572F682F792FCB01BA012AE037ED43E24F
:100210005CE30E94D40723E333E948E853E40E94F7
:10022000D407462F572F682F792FCB01BA01DF91C2
:10023000CF910895CF92DF92EF92FF9284EB90E0FE
:100240000E94D5006B017C0120E030E040E851E4E1
:100250000E94390887FF22C081E080933E0188E434
:1002600091E061E171E00E94420560913E0188E405
:1002700091E070E04AE050E00E941D0688E491E0C1
:100280006BE171E00E94420584EB90E0B701A601AA
:100290000E94A80080912B0161E02AC0C701B6012D
:1002A00020E030E040EA51E40E94880918161CF56D
:1002B00010923E0188E491E061E171E00E94420504
:1002C00060913E0188E491E070E04AE050E00E94D5
:1002D0001D0688E491E06BE171E00E94420584EB29
:1002E00090E0B701A6010E94A80080912B0160E078
:1002F0000E9402021BC088E491E061E171E00E946B
:10030000420560913E0188E491E070E04AE050E0EF
:100310000E941D0688E491E06BE171E00E944205B5
:1003200084EB90E0B701A6010E94A80060ED77E0A1
:1003300080E090E00E94AD02FF90EF90DF90CF90C0
:100340000895833071F0843028F48130A1F0823038
:1003500021F514C08630B1F08730D1F08430E9F453
:1003600004C0809180008F7703C0809180008F7DD2
:1003700080938000089584B58F7702C084B58F7D07
:1003800084BD08958091B0008F778093B000089568
:100390008091B0008F7D8093B000089590E0FC01C3
:1003A000E458FF4F249180579F4FFC01849188238C
:1003B00041F190E0880F991FFC01E854FF4F4591EF
:1003C0005491DA0182559F4FFC0185919491FC0173
:1003D0009FB7F8948C91662331F4209582238C93F7
:1003E0008081822308C0623049F4322F3095832304
:1003F0008C938081822B80839FBF0895822B8C9366
:100400009FBF08950F931F93CF93DF930F92CDB7A4
:10041000DEB7282F30E0F901E859FF4F8491F90148
:10042000E458FF4F1491F901E057FF4F0491002366
:10043000D1F0882321F069830E94A1016981E02F16
:10044000F0E0EE0FFF1FE255FF4F85919491DC0124
:100450009FB7F8948C91662319F41095812301C0FD
:10046000812B8C939FBF0F90DF91CF911F910F91A4
:1004700008951F920F920FB60F9211242F933F935E
:100480008F939F93AF93BF9380913F0190914001D1
:10049000A0914101B091420130914701232F2D5F7E
:1004A0002D3720F40196A11DB11D05C0232F2A5719
:1004B0000296A11DB11D2093470180933F019093A7
:1004C0004001A0934101B09342018091430190917A
:1004D0004401A0914501B09146010196A11DB11DB5
:1004E0008093430190934401A0934501B09346014A
:1004F000BF91AF919F918F913F912F910F900FBE20
:100500000F901F9018950F931F939FB7F894009129
:10051000430110914401209145013091460186B577
:10052000A89B06C08F3F21F00F5F1F4F2F4F3F4FFB
:100530009FBF322F212F102F0027080F111D211DC3
:10054000311D42E0000F111F221F331F4A95D1F7C2
:10055000B801C9011F910F910895CF92DF92EF92D8
:10056000FF92CF93DF936B017C010E948302DC0139
:10057000CB01EC010FC00E9483026C1B7D0B83E05A
:10058000683E780738F00894C108D108E108F108FE
:10059000C851DC4FC114D104E104F10461F7DF91CB
:1005A000CF91FF90EF90DF90CF900895789484B52D
:1005B000826084BD84B5816084BD85B5826085BD5F
:1005C00085B5816085BDEEE6F0E080818160808345
:1005D000E1E8F0E010828081826080838081816028
:1005E0008083E0E8F0E0808181608083E1EBF0E0EF
:1005F000808184608083E0EBF0E080818160808393
:10060000EAE7F0E08081846080838081826080837B
:100610008081816080838081806880831092C100A6
:1006200008950E94D6020E948C00C9EFD3E00E9478
:100630001A012097E1F30E94F903F9CFFC01248508
:100640003585F901E05CFF4F808191812E5B3F4F42
:10065000F90120813181821B930B8F739070089573
:10066000FC0144855585FA01E05CFF4F8081918152
:10067000FA01EE5BFF4F208131818217930741F031
:100680000190F081E02DE40FF51F808190E0089546
:100690008FEF9FEF0895FC0144855585FA01E05CDA
:1006A000FF4F20813181FA01EE5BFF4F8081918104
:1006B0002817390779F0A081B181A40FB51F8C915B
:1006C000208131812F5F3F4F2F7330703183208322
:1006D00090E008958FEF9FEF0895FC0181A188239A
:1006E00029F0A489B5898C9186FFFBCF11A20895CA
:1006F000CF93DF93DC011E964D915C911F97EA0129
:10070000C05CDF4F288139812F5F3F4F2F733070DE
:10071000FA01EE5BFF4F8081918128173907D9F3E9
:10072000E881F981E40FF51F60831E96ED91FC913D
:100730001F97E05CFF4F318320835696ED91FC912B
:100740005797208181E090E05F960C905F9702C000
:10075000880F991F0A94E2F7282B208381E0919655
:100760008C9391975496ED91FC915597808180647C
:10077000808381E090E0DF91CF91089508951F92EA
:100780000F920FB60F9211242F933F934F938F9395
:100790009F93EF93FF938091C00082FD1CC0409116
:1007A000C6008091EE019091EF0101968F739070D9
:1007B0002091F0013091F1018217930771F0E091DF
:1007C000EE01F091EF01E255FE4F40839093EF016F
:1007D0008093EE0102C08091C600FF91EF919F913E
:1007E0008F914F913F912F910F900FBE0F901F90BF
:1007F000189588E491E00E941E03009711F00E9472
:10080000BE0308951F920F920FB60F9211242F93DB
:100810003F938F939F93EF93FF932091AA01309181
:10082000AB018091AC019091AD012817390731F4EB
:100830008091C1008F7D8093C10014C0E091AC0114
:10084000F091AD01E659FE4F20818091AC0190916D
:10085000AD0101968F7390709093AD018093AC01C0
:100860002093C600FF91EF919F918F913F912F911F
:100870000F900FBE0F901F901895BF92CF92DF92EE
:10088000EF92FF920F931F93CF93DF93EC016A01D6
:100890007B01BB24B394403081EE580780E06807A9
:1008A00080E0780749F4BB24EC89FD89108260E878
:1008B00074E88EE190E00FC0EC89FD8981E090E062
:1008C00008A002C0880F991F0A94E2F7808360E0B5
:1008D00079E08DE390E0A70196010E94F309890178
:1008E0009A010150104020403040369527951795C9
:1008F000079580E10030180710F0BB20A1F6E889C9
:10090000F9891083EA89FB89008319A2EE89FF899E
:10091000408121E030E0C9010C8C02C0880F991F92
:100920000A94E2F7482B4083EE89FF894081C90190
:100930000D8C02C0880F991F0A94E2F7482B408360
:10094000EE89FF894081C9010E8C02C0880F991F72
:100950000A94E2F7482B4083EE89FF8980810F8C4F
:1009600002C0220F331F0A94E2F720952823208328
:10097000DF91CF911F910F91FF90EF90DF90CF907B
:10098000BF90089510924B0110924A0188EE93E0B7
:10099000A0E0B0E080934C0190934D01A0934E01F4
:1009A000B0934F01EAE4F1E081E391E09293829306
:1009B0008EEA91E0958784878AE691E0978786871B
:1009C00085EC90E0918B808B84EC90E0938B828B14
:1009D00080EC90E0958B848B81EC90E0978B868BFC
:1009E00082EC90E0918F808F86EC90E0938F828FE5
:1009F00084E0848F83E0858F87E0868F85E0878F12
:100A000081E080A30895CF92DF92EF92FF920F933F
:100A10001F93CF93DF936C017B01EA0100E010E0AC
:100A20000EC0D7016D917D01D601ED91FC91019031
:100A3000F081E02DC6010995080F191F2197209715
:100A400081F7C801DF91CF911F910F91FF90EF9037
:100A5000DF90CF9008956115710589F0DB010D904D
:100A60000020E9F7AD0141505040461B570BDC0117
:100A7000ED91FC910280F381E02D0995089580E0CD
:100A800090E008950E942B050895DC01ED91FC9102
:100A90000190F081E02D099508950F931F93CF9356
:100AA000DF938C016DE00E944505EC01C8016AE00E
:100AB0000E9445058C0F9D1FDF91CF911F910F91D3
:100AC00008950F931F93CF93DF938C010E942B0502
:100AD000EC01C8010E944D058C0F9D1FDF91CF9145
:100AE0001F910F9108954F925F926F927F92AF92F4
:100AF000BF92CF92DF92EF92FF920F931F93CF930B
:100B0000DF93CDB7DEB7A1970FB6F894DEBF0FBE67
:100B1000CDBF5C01E42ECB01F22E19A221E02F15EE
:100B200010F03AE0F32E21E2C22ED12CCC0EDD1EC5
:100B30004F2C55246624772403C0E02E512FC90181
:100B40006E2D752FA30192010E94F30989019A016C
:100B5000F09E802D1124E81A8E2D0894C108D1082A
:100B60008A3014F4805D01C0895CF6018083011530
:100B700011052105310509F7C501B6010E942B05B4
:100B8000A1960FB6F894DEBF0FBECDBFDF91CF9117
:100B90001F910F91FF90EF90DF90CF90BF90AF909B
:100BA0007F906F905F904F9008952115310549F423
:100BB000DC01ED91FC910190F081E02D642F09950D
:100BC00008950E9473050895CF92DF92EF92FF92ED
:100BD0000F931F93CF93DF93EC016A017B012115E3
:100BE000310541F4E881F9810190F081E02D642F15
:100BF00009951AC02A303105A9F477FF12C06DE2B9
:100C00000E9445058C0144275527BA014C195D09FE
:100C10006E097F09CE012AE00E947305800F911FA3
:100C200003C02AE00E947305DF91CF911F910F91BD
:100C3000FF90EF90DF90CF9008959A01FB01AF01F4
:100C4000662757FD6095762F0E94E40508952F9240
:100C50003F924F925F927F928F929F92AF92BF92FC
:100C6000CF92DF92EF92FF920F931F93CF93DF9378
:100C70002C014A015B01722ECB01BA01A50194013E
:100C80000E94EF09882321F0C2016DE171E01BC0D1
:100C900075016401E894F7F8C701B6012FEF3FEF43
:100CA0004FE75FE70E94EF09882389F4C701B60187
:100CB0002FEF3FEF4FE75FE70E94390818163CF42B
:100CC000C20161E271E00E942B054C01C6C0C50162
:100CD000B4012FEF3FEF4FE75FE40E948809181639
:100CE00054F0C501B4012FEF3FEF4FE75FEC0E94D6
:100CF000390887FF04C0C20165E271E0E4CFC50195
:100D0000B40120E030E040E050E00E94390887FF65
:100D10000AC0C2016DE20E9445051C01B7FAB094F9
:100D2000B7F8B09402C022243324C0E050E040E081
:100D300030E02FE313C0FA01B9018F2F942FA72FB2
:100D4000B22FBC01CD0120E030E040E251E40E942E
:100D50003D08562F472F382F292FCF5FC71559F73A
:100D6000C501B401DA01F9010B2F142F2F2F3E2FEB
:100D7000A90198010E94D5077B01182FD92F862F32
:100D80009F2DA12FBD2FBC01CD010E94AA08C62E08
:100D9000072F882EC92F0E94D6089B01AC018E2DEB
:100DA0009F2DA12FBD2FBC01CD010E94D4077B0137
:100DB000182FD92FC2014C2D502F682D7C2F2AE0DF
:100DC00030E00E94D5054C01820C931C772009F479
:100DD00042C0C20169E271E00E942B05880E991E93
:100DE0003AC08E2D9F2DA12FBD2FBC01CD0120E03B
:100DF00030E040E251E40E948C09EB01182F092FEA
:100E00009801862F9D2FA32FB22FBC01CD010E94E8
:100E1000A5086B017C01EE24D7FCE094FE2CC201F6
:100E2000B701A6012AE030E00E94E405880E991E71
:100E3000C701B6010E94D8089B01AC01B8018C2FF4
:100E40009D2FA72FB62FBC01CD010E94D4077B0197
:100E5000182FD92F7A94772021F6C401DF91CF91F2
:100E60001F910F91FF90EF90DF90CF90BF90AF90C8
:100E70009F908F907F905F904F903F902F9008951C
:100E80000F931F93CF93DF938C010E942706EC01F1
:100E9000C8010E944D058C0F9D1FDF91CF911F91BE
:100EA0000F9108951092B90088E98093B8000895D1
:100EB00094EA9093BC009091BC0097FFFCCF909176
:100EC000B900987F983011F0903199F48093BB006D
:100ED00084E88093BC008091BC0087FFFCCF909198
:100EE000B900987F983139F081E0903429F480E09E
:100EF000089581E0089580E0089544EA34E824E903
:100F00004093BC009091BC0097FFFCCF9091B9003A
:100F1000987F983011F0903199F78093BB0030930F
:100F2000BC009091BC0097FFFCCF9091B900987FD6
:100F3000903211F0983539F42093BC009091BC00A8
:100F400094FDFCCFDDCF08950E945807089584E9F1
:100F50008093BC008091BC0084FDFCCF08958093F9
:100F6000BB0084E88093BC008091BC0087FFFCCF6D
:100F70009091B900987F81E0983209F480E008955B
:100F800084EC8093BC008091BC0087FFFCCF8091F3
:100F9000BB00089584E88093BC008091BC0087FF6B
:100FA000FCCF8091BB0008955058BB27AA270ED0D4
:100FB00075C166D130F06BD120F031F49F3F11F450
:100FC0001EF45BC10EF4E095E7FB51C1E92F77D128
:100FD00080F3BA17620773078407950718F071F456
:100FE0009EF58FC10EF4E0950B2EBA2FA02D0B01AC
:100FF000B90190010C01CA01A0011124FF27591B5E
:1010000099F0593F50F4503E68F11A16F040A22F63
:10101000232F342F4427585FF3CF469537952795D4
:10102000A795F0405395C9F77EF41F16BA0B620BD3
:10103000730B840BBAF09150A1F0FF0FBB1F661F1A
:10104000771F881FC2F70EC0BA0F621F731F841F5D
:1010500048F4879577956795B795F7959E3F08F083
:10106000B3CF9395880F08F09927EE0F9795879542
:101070000895D9D008F481E008950CD00FC107D1AC
:1010800040F0FED030F021F45F3F19F0F0C0511174
:1010900039C1F3C014D198F39923C9F35523B1F39F
:1010A000951B550BBB27AA2762177307840738F0D7
:1010B0009F5F5F4F220F331F441FAA1FA9F333D036
:1010C0000E2E3AF0E0E830D091505040E695001CEA
:1010D000CAF729D0FE2F27D0660F771F881FBB1FA6
:1010E000261737074807AB07B0E809F0BB0B802D80
:1010F000BF01FF2793585F4F2AF09E3F510568F0CC
:10110000B6C000C15F3FECF3983EDCF3869577955F
:101110006795B795F7959F5FC9F7880F911D9695CD
:10112000879597F90895E1E0660F771F881FBB1F29
:10113000621773078407BA0720F0621B730B840BD6
:10114000BA0BEE1F88F7E095089504D06894B111AA
:10115000D9C00895BCD088F09F5790F0B92F992737
:10116000B751A0F0D1F0660F771F881F991F1AF0B2
:10117000BA95C9F712C0B13081F0C3D0B1E008957B
:10118000C0C0672F782F8827B85F39F0B93FCCF3FC
:10119000869577956795B395D9F73EF490958095A8
:1011A000709561957F4F8F4F9F4F0895E89409C0C8
:1011B00097FB3EF490958095709561957F4F8F4F8A
:1011C0009F4F9923A9F0F92F96E9BB279395F695A0
:1011D000879577956795B795F111F8CFFAF4BB0F1E
:1011E00011F460FF1BC06F5F7F4F8F4F9F4F16C082
:1011F000882311F096E911C0772321F09EE8872F0C
:10120000762F05C0662371F096E8862F70E060E0C7
:101210002AF09A95660F771F881FDAF7880F969540
:10122000879597F90895990F0008550FAA0BE0E8E4
:10123000FEEF16161706E807F907C0F01216130698
:10124000E407F50798F0621B730B840B950B39F4D8
:101250000A2661F0232B242B252B21F408950A263E
:1012600009F4A140A6958FEF811D811D089597F97E
:101270009F6780E870E060E008959FEF80EC08953C
:1012800000240A9416161706180609060895002465
:101290000A9412161306140605060895092E0394DF
:1012A000000C11F4882352F0BB0F40F4BF2B11F453
:1012B00060FF04C06F5F7F4F8F4F9F4F089557FDB2
:1012C0009058440F551F59F05F3F71F04795880FB4
:1012D00097FB991F61F09F3F79F08795089512164B
:1012E00013061406551FF2CF4695F1DF08C01616F7
:1012F00017061806991FF1CF8695710561050894A8
:101300000895E894BB2766277727CB0197F90895BE
:101310008ADF08F48FEF08950BD0C0CFB1DF28F03B
:10132000B6DF18F0952309F0A2CFA7CF1124EACF9A
:10133000C6DFA0F3959FD1F3950F50E0551F629F34
:10134000F001729FBB27F00DB11D639FAA27F00D1E
:10135000B11DAA1F649F6627B00DA11D661F829F45
:101360002227B00DA11D621F739FB00DA11D621F2A
:10137000839FA00D611D221F749F3327A00D611D47
:10138000231F849F600D211D822F762F6A2F112429
:101390009F5750408AF0E1F088234AF0EE0FFF1F7C
:1013A000BB1F661F771F881F91505040A9F79E3FB3
:1013B000510570F05CCFA6CF5F3FECF3983EDCF3B5
:1013C000869577956795B795F795E7959F5FC1F7F0
:1013D000FE2B880F911D9695879597F9089523DF29
:1013E000880B990B0895A1E21A2EAA1BBB1BFD01C5
:1013F0000DC0AA1FBB1FEE1FFF1FA217B307E407F4
:10140000F50720F0A21BB30BE40BF50B661F771F4B
:10141000881F991F1A9469F760957095809590952B
:101420009B01AC01BD01CF010895EE0FFF1F059098
:0A143000F491E02D0994F894FFCF29
:10143A0053657475702E2E2E0044657620003A206E
:10144A00007C20486561743A20200020006E616E9D
:10145A0000696E66006F7666002E000D00000000BF
:0E146A0000780303051E034B0330036D0300DF
:00000001FF
